:100000000C942A000C9447000C9447000C94470071
:100010000C9447000C9447000C9447000C94470044
:100020000C9447000C9447000C9447000C94470034
:100030000C9447000C9447000C9447000C94470024
:100040000C9447000C9447000C9447000C94470014
:100050000C94470011241FBECFE5D8E0DEBFCDBF12
:1000600010E0A0E6B0E0EAE0F7E002C005900D92F3
:10007000A036B107D9F710E0A0E6B0E001C01D92AC
:10008000A036B107E1F70E94AC020C9483030C94F4
:100090000000843008F087C0683008F084C0413028
:1000A00009F03EC08130A9F0813030F08230F1F0AB
:1000B000833009F078C027C02AB381E090E0AC011A
:1000C00002C0440F551F6A95E2F7BA01622B6ABB62
:1000D000089527B381E090E0AC0102C0440F551FA2
:1000E0006A95E2F7BA01622B67BB089524B381E0F9
:1000F00090E0AC0102C0440F551F6A95E2F7BA01C7
:10010000622B64BB089521B381E090E0AC0102C092
:10011000440F551F6A95E2F7BA01622B61BB08953F
:10012000442309F040C08130A9F0813028F08230AA
:10013000F9F08330C1F52AC02AB381E090E0AC0128
:1001400002C0440F551F6A95E2F7BA016095622319
:100150006ABB089527B381E090E0AC0102C0440F70
:10016000551F6A95E2F7BA016095622367BB08954F
:1001700024B381E090E0AC0102C0440F551F6A95A2
:10018000E2F7BA016095622364BB089521B381E070
:1001900090E0AC0102C0440F551F6A95E2F7BA0126
:1001A0006095622361BB0895843008F087C0683091
:1001B00008F084C0413009F03EC08130A9F08130A0
:1001C00030F08230F1F0833009F078C027C02BB3D3
:1001D00081E090E0AC0102C0440F551F6A95E2F740
:1001E000BA01622B6BBB089528B381E090E0AC01AB
:1001F00002C0440F551F6A95E2F7BA01622B68BB33
:10020000089525B381E090E0AC0102C0440F551F72
:100210006A95E2F7BA01622B65BB089522B381E0CB
:1002200090E0AC0102C0440F551F6A95E2F7BA0195
:10023000622B62BB0895442309F040C08130A9F0CD
:10024000813028F08230F9F08330C1F52AC02BB319
:1002500081E090E0AC0102C0440F551F6A95E2F7BF
:10026000BA01609562236BBB089528B381E090E0EA
:10027000AC0102C0440F551F6A95E2F7BA016095C0
:10028000622368BB089525B381E090E0AC0102C011
:10029000440F551F6A95E2F7BA016095622365BB6A
:1002A000089522B381E090E0AC0102C0440F551FD5
:1002B0006A95E2F7BA016095622362BB08958430C3
:1002C00098F5683098F5813089F0813028F08230D7
:1002D000B9F0833069F51EC029B330E0C90102C00E
:1002E000959587956A95E2F78170089526B330E079
:1002F000C90102C0959587956A95E2F781700895C6
:1003000023B330E0C90102C0959587956A95E2F75D
:100310008170089520B330E0C90102C0959587959A
:100320006A95E2F7817008958FEF08958FEF089531
:100330008FEF0895843048F56130A9F4813051F091
:10034000813028F0823049F08330F9F409C08FEF12
:100350008ABB08958FEF87BB08958FEF84BB089504
:100360008FEF81BB0895662381F4813049F081309D
:1003700028F0823039F0833041F406C01ABA08956B
:1003800017BA089514BA089511BA0895843080F404
:10039000813049F0813028F0823039F0833041F4E7
:1003A00006C06BBB089568BB089565BB089562BB2A
:1003B0000895843008F08CC0623008F089C0413064
:1003C00009F042C08130B1F0813030F0823001F16B
:1003D000833009F07DC02AC04AB3660F660F2FE054
:1003E00030E0C90102C0880F991F6A95E2F7842B9B
:1003F0008ABB089547B3660F660F2FE030E0C9014E
:1004000002C0880F991F6A95E2F7842B87BB089575
:1004100044B3660F660F2FE030E0C90102C0880FB9
:10042000991F6A95E2F7842B84BB089541B3660F48
:10043000660F2FE030E0C90102C0880F991F6A954E
:10044000E2F7842B81BB0895442309F041C0813039
:10045000A9F0813028F08230F9F08330C9F52AC044
:100460004AB3660F660F20EF30E0C90102C09595D0
:1004700087956A95E2F784238ABB089547B3660F90
:10048000660F20EF30E0C90102C0959587956A9507
:10049000E2F7842387BB089544B3660F660F20EF0D
:1004A00030E0C90102C0959587956A95E2F78423EB
:1004B00084BB089521B3660F660F80EF90E0AC0116
:1004C00002C0559547956A95E2F7BA01622361BB70
:1004D00008958430F0F56230E0F58130A1F081308C
:1004E00028F08230E9F08330A1F527C0662329F493
:1004F0008BB34F70807F482B04C08BB3407F8F70CD
:10050000482B4BBB0895662329F488B34F70807F36
:10051000482B04C088B3407F8F70482B48BB089598
:10052000662329F485B34F70807F482B04C085B3C0
:10053000407F8F70482B45BB0895662329F482B312
:100540004F70807F482B04C082B3407F8F70482B50
:1005500042BB089508950895CF93DF930F92CDB7CE
:10056000DEB780E060E041E00E944900198280E14E
:100570000E94F0020E946E03CE0101960E94720357
:10058000182F8981823629F480E060E041E00E94E2
:10059000D400112379F781E40E944703882351F79F
:1005A00060E00E945F01882341F488E40E944703D1
:1005B000E1CF8CE40E944703DDCF80E061E00E9440
:1005C0005F018823B1F3D6CF88E480B908980998F1
:1005D00086B7806486BF109886B7846086BF08950A
:1005E00098E490B90898099896B7906496BF1098C7
:1005F00096B7946096BF880F82B9089586B78062D7
:1006000086BF86B7806886BF06B607FEFDCF91B16C
:10061000987F81E0983009F480E0089586B7806281
:1006200086BF86B7806886BF06B607FEFDCF81B15C
:10063000887F803111F480E0089582E00895880F6A
:1006400083B9189A86B78F7D86BF86B7806886BFC4
:1006500006B607FEFDCF81B1887F803411F480E0BB
:10066000089583E00895880F83B9189886B78F7D21
:1006700086BF86B7806886BF06B607FEFDCF81B10C
:10068000887F883111F480E0089584E0089583B96B
:1006900086B7806886BF06B607FEFDCF81B1887F2A
:1006A000883211F480E0089585E0089526B7206827
:1006B00026BF06B607FEFDCF21B1287F283429F4D6
:1006C00023B1FC01208380E0089586E0089586B779
:1006D000806186BF86B7806886BF089506B607FE2C
:1006E000FDCF089526B7206826BF06B607FEFDCFCA
:1006F00021B1287F203829F423B1FC01208380E038
:0A070000089587E00895F894FFCFF4
:00000001FF
