:100000000C942A000C940C020C9447000C944700AA
:100010000C9447000C9447000C9447000C94470044
:100020000C9447000C9447000C9447000C94AF04C8
:100030000C9447000C9447000C9447000C94470024
:100040000C9447000C9447000C9447000C94470014
:100050000C94470011241FBECFE5D8E0DEBFCDBF12
:1000600010E0A0E6B0E0E6EEFDE002C005900D92E3
:10007000A637B107D9F710E0A6E7B0E001C01D929E
:10008000A938B107E1F70E94F5020C94F1060C942F
:1000900000008FEF8ABB87BB84E184BB8BEF81BB01
:1000A00008958830E8F4613069F44BB321E030E022
:1000B000B90102C0660F771F8A95E2F7CB01842B46
:1000C0008BBB08954BB321E030E0B90102C0660F4D
:1000D000771F8A95E2F7CB01809584238BBB089527
:1000E000982F98509830E8F4613069F448B321E0D3
:1000F00030E0B90102C0660F771F9A95E2F7CB0195
:10010000842B88BB089548B321E030E0B90102C0D8
:10011000660F771F9A95E2F7CB018095842388BB01
:100120000895982F90519830E8F4613069F445B300
:1001300021E030E0B90102C0660F771F9A95E2F71F
:10014000CB01842B85BB089545B321E030E0B90194
:1001500002C0660F771F9A95E2F7CB018095842342
:1001600085BB089588518830E0F4613069F442B36A
:1001700021E030E0B90102C0660F771F8A95E2F7EF
:10018000CB01842B82BB089542B321E030E0B9015A
:1001900002C0660F771F8A95E2F7CB018095842312
:1001A00082BB0895883058F429B330E0A90102C019
:1001B000559547958A95E2F7942F91702BC0482F5B
:1001C0004850483058F426B330E0C90102C0959534
:1001D00087954A95E2F7982F91701CC0482F40519F
:1001E000483058F423B330E0C90102C09595879593
:1001F0004A95E2F7982F91700DC08851883050F4DD
:1002000020B330E0A90102C0559547958A95E2F7E1
:10021000942F9170892F08958830E8F4613069F443
:100220004AB321E030E0B90102C0660F771F8A951A
:10023000E2F7CB01842B8ABB08954AB321E030E07A
:10024000B90102C0660F771F8A95E2F7CB0180954E
:1002500084238ABB0895982F98509830E8F4613031
:1002600069F447B321E030E0B90102C0660F771F9F
:100270009A95E2F7CB01842B87BB089547B321E021
:1002800030E0B90102C0660F771F9A95E2F7CB0103
:100290008095842387BB0895982F90519830E8F477
:1002A000613069F444B321E030E0B90102C0660F67
:1002B000771F9A95E2F7CB01842B84BB089544B352
:1002C00021E030E0B90102C0660F771F9A95E2F78E
:1002D000CB018095842384BB089588518830E0F455
:1002E000613069F441B321E030E0B90102C0660F2A
:1002F000771F8A95E2F7CB01842B81BB089541B328
:1003000021E030E0B90102C0660F771F8A95E2F75D
:10031000CB018095842381BB0895883068F44BB36A
:1003200021E030E0B90102C0660F771F8A95E2F73D
:10033000CB0184278BBB0895982F9850983068F490
:1003400048B321E030E0B90102C0660F771F9A95EB
:10035000E2F7CB01842788BB0895982F90519830FD
:1003600068F445B321E030E0B90102C0660F771FA1
:100370009A95E2F7CB01842785BB08958851883090
:1003800060F442B321E030E0B90102C0660F771F8C
:100390008A95E2F7CB01842782BB089585B78160F7
:1003A00085BF85B7826085BF8BB78F7B8BBF8AB7D0
:1003B00080648ABF08958BB780648BBF08958BB724
:1003C0008F7B8BBF0895909387008093860008955C
:1003D000813039F485B7816085BF85B78D7F85BF52
:1003E0000895873039F485B7816085BF85B782600D
:1003F00085BF0895843039F485B78E7F85BF85B772
:10040000826085BF08958A3031F485B78E7F85BFBD
:1004100085B78D7F85BF08951F920F920FB60F92FB
:1004200011242F933F934F935F936F937F938F93F9
:100430009F93AF93BF93EF93FF93E0918600F0916A
:1004400087000995FF91EF91BF91AF919F918F9197
:100450007F916F915F914F913F912F910F900FBEC0
:100460000F901F9018958FB780688FBF08958FB732
:100470008F778FBF089580918000909181000196C1
:10048000909381008093800008950F931F93CF93E2
:10049000DF9380917E0090917F0081309105B9F0CB
:1004A0008230910509F456C0009709F092C080E0AF
:1004B0000E94850484E00E94E80180917E00909172
:1004C0007F00019690937F0080937E0082C06091B0
:1004D000800070918100882777FD8095982F0E9479
:1004E000DB0520E030E04FE753E40E946706D62F9B
:1004F000C72F182F092F0E948904682F70E080E011
:1005000090E00E94DB059B01AC018D2F9C2FA12F59
:10051000B02FBC01CD010E94DC042DEB37E346E097
:1005200059E30E946706DC01CB0180937A00909327
:100530007B00A0937C00B0937D0087E00E94E801DF
:1005400080917E0090917F00019690937F00809330
:100550007E003FC06091800070918100882777FD08
:100560008095982F0E94DB0520E030E04FE753E4B0
:100570000E946706D62FC72F182F092F0E948904C3
:10058000682F70E080E090E00E94DB059B01AC01E9
:100590008D2F9C2FA12FB02FBC01CD010E94DC0418
:1005A0002DEB37E346E059E30E946706DC01CB01FF
:1005B0008093760090937700A0937800B0937900B1
:1005C00084E00E94E80181E090E090937F008093B6
:1005D0007E0080E00E9485041092810010928000CD
:1005E000DF91CF911F910F9108958BE392E00E94CC
:1005F000AA0485E492E00E94E3010E9449000E945F
:10060000CE010E9433040E947F040E948B040E944A
:10061000DB010E9433028FE185BD8FE783BD0F2E82
:10062000F0E66F2EF0E07F2EF02D0F2EF4E64F2E29
:100630005524F02D0F2EFAE08F2E9924F02D0F2E39
:10064000F8E62F2EF0E03F2EF02DC0907A00D090EB
:100650007B00E0907C00F0907D00C701B601209106
:1006600076003091770040917800509179000E9497
:10067000DC04C62FD72FB82EA92EC701B60120E063
:1006800030E048EC52E40E9467060C2F1D2F2B2D02
:100690003A2DA90198010E9440050E94A805DC019D
:1006A000CB016C0160E070E080E89FE32B2D3A2DD8
:1006B000A90198010E9440050E94A805DC01CB0118
:1006C0008C0180E80E940B04C3010E946904C801E8
:1006D000B2010E94CA06862F805D0E941A04C801DA
:1006E000B4010E94CA06082FCB01B4010E94CA06B9
:1006F000805D0E941A04802F805D0E941A04C1014F
:100700000E94690482E060E00E945B048CE690E055
:100710000E946904C601B4010E94CA06082F862FF0
:10072000805D0E941A04802F805D0E941A0480E27E
:100730000E941A0485E20E941A0487CFCF93DF93A8
:10074000C82FD0E0682F617080E00E945100BE0188
:1007500075956795617081E00E945100BE017595A5
:10076000679575956795617082E00E945100BE01A2
:10077000759567957595679575956795617083E033
:100780000E945100BE0175956795759567957595A1
:10079000679575956795617084E00E945100BE0170
:1007A0007595679575956795759567957595679531
:1007B00075956795617085E00E945100BE01062E17
:1007C000672F000C661F770B000C661F771F617088
:1007D00086E00E945100BE01660F672F661F770BEF
:1007E000617087E00E9451008CE161E00E9451003D
:1007F00083EF91E00197F1F700C000008CE160E029
:100800000E94510083EF91E00197F1F700C00000D2
:10081000DF91CF910895CF93C82F88E160E00E94C7
:10082000510089E160E00E9451008C2F0E949E03DC
:10083000CF910895CF93C82F88E161E00E945100C5
:1008400089E160E00E9451008C2F0E949E03CF91AD
:10085000089581E00E940B0483EF91E00197F1F786
:1008600000C0000008958DE292E20197F1F700C008
:10087000000088E30E940B0489EF90E00197F1F7F4
:1008800000C000008CE00E940B0489EF90E001970B
:10089000F1F700C000000E94290486E00E940B04CA
:1008A00083EF91E00197F1F700C000008CE160E078
:1008B0000E9451000895813029F4862F80580E94AB
:1008C0000B040895823021F4862F80540E940B047B
:1008D00008950F931F93CF938C01FC01808188238F
:1008E00051F0C0E00E941A04CF5FF801EC0FF11D37
:1008F00080818823B9F7CF911F910F91089585E0EA
:1009000083BF12BE08958CBF089582BF089583BF30
:10091000089582B7089589B7816089BF089589B71E
:10092000826089BF089589B78E7F89BF089589B78E
:100930008E7F89BF089588B7816088BF089588B782
:100940008170089588B7826088BF089588B78695BA
:1009500081700895909383008093820008951F9280
:100960000F920FB60F9211242F933F934F935F93E3
:100970006F937F938F939F93AF93BF93EF93FF9367
:10098000E0918200F09183000995FF91EF91BF9172
:10099000AF919F918F917F916F915F914F913F9117
:1009A0002F910F900FBE0F901F9018959093850078
:1009B0008093840008955058BB27AA270ED04DC1BC
:1009C0003ED130F043D120F031F49F3F11F41EF4BA
:1009D00033C10EF4E095E7FB29C1E92F4FD180F335
:1009E000BA17620773078407950718F071F49EF52C
:1009F00067C10EF4E0950B2EBA2FA02D0B01B901A3
:100A000090010C01CA01A0011124FF27591B99F084
:100A1000593F50F4503E68F11A16F040A22F232F90
:100A2000342F4427585FF3CF469537952795A795E0
:100A3000F0405395C9F77EF41F16BA0B620B730B87
:100A4000840BBAF09150A1F0FF0FBB1F661F771FF8
:100A5000881FC2F70EC0BA0F621F731F841F48F4AD
:100A6000879577956795B795F7959E3F08F0B3CF33
:100A70009395880F08F09927EE0F9795879508951D
:100A80000CD0EBC0E3D040F0DAD030F021F45F3F7F
:100A900019F0CCC0511115C1CFC0F0D098F39923F3
:100AA000C9F35523B1F3951B550BBB27AA27621732
:100AB0007307840738F09F5F5F4F220F331F441F77
:100AC000AA1FA9F333D00E2E3AF0E0E830D09150AF
:100AD0005040E695001CCAF729D0FE2F27D0660F9C
:100AE000771F881FBB1F261737074807AB07B0E8DB
:100AF00009F0BB0B802DBF01FF2793585F4F2AF0F1
:100B00009E3F510568F092C0DCC05F3FECF3983E19
:100B1000DCF3869577956795B795F7959F5FC9F74D
:100B2000880F911D9695879597F90895E1E0660FD6
:100B3000771F881FBB1F621773078407BA0720F04F
:100B4000621B730B840BBA0BEE1F88F7E0950895B8
:100B500004D06894B111B5C0089598D088F09F571B
:100B600090F0B92F9927B751A0F0D1F0660F771FF9
:100B7000881F991F1AF0BA95C9F712C0B13081F0D9
:100B80009FD0B1E008959CC0672F782F8827B85F69
:100B900039F0B93FCCF3869577956795B395D9F73A
:100BA0003EF490958095709561957F4F8F4F9F4F44
:100BB0000895E89409C097FB3EF490958095709550
:100BC00061957F4F8F4F9F4F9923A9F0F92F96E999
:100BD000BB279395F695879577956795B795F1110E
:100BE000F8CFFAF4BB0F11F460FF1BC06F5F7F4FAB
:100BF0008F4F9F4F16C0882311F096E911C07723BD
:100C000021F09EE8872F762F05C0662371F096E8C5
:100C1000862F70E060E02AF09A95660F771F881F94
:100C2000DAF7880F9695879597F9089597F99F6752
:100C300080E870E060E008959FEF80EC0895002464
:100C40000A941616170618060906089500240A9431
:100C500012161306140605060895092E0394000CB7
:100C600011F4882352F0BB0F40F4BF2B11F460FF46
:100C700004C06F5F7F4F8F4F9F4F089557FD90586F
:100C8000440F551F59F05F3F71F04795880F97FB50
:100C9000991F61F09F3F79F087950895121613060A
:100CA0001406551FF2CF4695F1DF08C01616170639
:100CB0001806991FF1CF869571056105089408956E
:100CC000E894BB2766277727CB0197F908950BD0C7
:100CD000C4CFB5DF28F0BADF18F0952309F0A6CF0E
:100CE000ABCF1124EECFCADFA0F3959FD1F3950FC0
:100CF00050E0551F629FF001729FBB27F00DB11DA0
:100D0000639FAA27F00DB11DAA1F649F6627B00D2F
:100D1000A11D661F829F2227B00DA11D621F739F18
:100D2000B00DA11D621F839FA00D611D221F749F26
:100D30003327A00D611D231F849F600D211D822F6D
:100D4000762F6A2F11249F5750408AF0E1F08823B4
:100D50004AF0EE0FFF1FBB1F661F771F881F9150C1
:100D60005040A9F79E3F510570F060CFAACF5F3F7A
:100D7000ECF3983EDCF3869577956795B795F795F4
:100D8000E7959F5FC1F7FE2B880F911D969587957C
:100D900097F9089597FB092E07260AD077FD04D00E
:100DA0000CD006D000201AF4709561957F4F0895FD
:100DB000F6F7909581959F4F0895AA1BBB1B51E1B3
:100DC00007C0AA1FBB1FA617B70710F0A61BB70BBB
:100DD000881F991F5A95A9F780959095BC01CD0160
:060DE0000895F894FFCF16
:100DE60046726571203D200020485A00447574798A
:060DF600203D2000010079
:00000001FF
