S0180000494E5055545F434150545552455F48572E737265630B
S11300000C942A000C9447000C9447000C9447006D
S11300100C9447000C9447000C9440020C94470045
S11300200C9447000C9447000C941A040C94F303AA
S11300300C9447000C9447000C9447000C94470020
S11300400C9447000C9447000C9447000C94470010
S11300500C94470011241FBECFE5D8E0DEBFCDBF0E
S113006010E0A0E6B0E0E8EBFBE002C005900D92E2
S1130070A637B107D9F710E0A6E7B0E001C01D929A
S1130080A238B107E1F70E94D6010C94DA050C946A
S113009000008FEF8ABB87BB84E184BB8FEB81BBFD
S11300A008958830E8F4613069F44BB321E030E01E
S11300B0B90102C0660F771F8A95E2F7CB01842B42
S11300C08BBB08954BB321E030E0B90102C0660F49
S11300D0771F8A95E2F7CB01809584238BBB089523
S11300E0982F98509830E8F4613069F448B321E0CF
S11300F030E0B90102C0660F771F9A95E2F7CB0191
S1130100842B88BB089548B321E030E0B90102C0D4
S1130110660F771F9A95E2F7CB018095842388BBFD
S11301200895982F90519830E8F4613069F445B3FC
S113013021E030E0B90102C0660F771F9A95E2F71B
S1130140CB01842B85BB089545B321E030E0B90190
S113015002C0660F771F9A95E2F7CB01809584233E
S113016085BB089588518830E0F4613069F442B366
S113017021E030E0B90102C0660F771F8A95E2F7EB
S1130180CB01842B82BB089542B321E030E0B90156
S113019002C0660F771F8A95E2F7CB01809584230E
S11301A082BB0895883058F429B330E0A90102C015
S11301B0559547958A95E2F7942F91702BC0482F57
S11301C04850483058F426B330E0C90102C0959530
S11301D087954A95E2F7982F91701CC0482F40519B
S11301E0483058F423B330E0C90102C0959587958F
S11301F04A95E2F7982F91700DC08851883050F4D9
S113020020B330E0A90102C0559547958A95E2F7DD
S1130210942F9170892F08958830E8F4613069F43F
S11302204AB321E030E0B90102C0660F771F8A9516
S1130230E2F7CB01842B8ABB08954AB321E030E076
S1130240B90102C0660F771F8A95E2F7CB0180954A
S113025084238ABB0895982F98509830E8F461302D
S113026069F447B321E030E0B90102C0660F771F9B
S11302709A95E2F7CB01842B87BB089547B321E01D
S113028030E0B90102C0660F771F9A95E2F7CB01FF
S11302908095842387BB0895982F90519830E8F473
S11302A0613069F444B321E030E0B90102C0660F63
S11302B0771F9A95E2F7CB01842B84BB089544B34E
S11302C021E030E0B90102C0660F771F9A95E2F78A
S11302D0CB018095842384BB089588518830E0F451
S11302E0613069F441B321E030E0B90102C0660F26
S11302F0771F8A95E2F7CB01842B81BB089541B324
S113030021E030E0B90102C0660F771F8A95E2F759
S1130310CB018095842381BB0895883068F44BB366
S113032021E030E0B90102C0660F771F8A95E2F739
S1130330CB0184278BBB0895982F9850983068F48C
S113034048B321E030E0B90102C0660F771F9A95E7
S1130350E2F7CB01842788BB0895982F90519830F9
S113036068F445B321E030E0B90102C0660F771F9D
S11303709A95E2F7CB01842785BB0895885188308C
S113038060F442B321E030E0B90102C0660F771F88
S11303908A95E2F7CB01842782BB08958FB78068E2
S11303A08FBF08958FB78F778FBF08950E9449003C
S11303B00E9412030E94B1038FE70E94D7031FBC5F
S11303C082E48EBD1DBC1CBC0E94CE0189B7806234
S11303D089BF809175008430E1F7C0917C00D09191
S11303E07D008091780090917900C81BD90B2091F1
S11303F07A0030917B0080917C0090917D00281BD5
S1130400390B44E650E0249FC001259F900D349F92
S1130410900D1124BE010E94C605062F172F80E6F9
S113042090E00E94480381E06BE00E943A03802F31
S1130430912F0E94750385E20E94F90282E060E038
S11304400E943A038DE690E00E944803BE0180E0DA
S113045090E00E94D5042DEB37E346E855E30E9473
S113046063059B01AC0160E070E080E89FE30E94BB
S113047041040E94A904DC01CB010E947503FFCF53
S11304801F920F920FB60F9211248F939F93809116
S11304907500813051F486B597B5909379008093B7
S11304A0780082E08093750021C0809175008230CD
S11304B069F486B597B590937D0080937C008EB5E2
S11304C08F7B8EBD83E08093750010C08091750092
S11304D0833061F486B597B590937B0080937A005E
S11304E08EB580648EBD84E0809375009F918F915A
S11304F00F900FBE0F901F901895CF93DF93C82FC6
S1130500D0E0682F617080E00E945100BE017595B3
S11305106795617081E00E945100BE0175956795F1
S113052075956795617082E00E945100BE017595D2
S113053067957595679575956795617083E00E94D9
S11305405100BE0175956795759567957595679585
S113055075956795617084E00E945100BE017595A0
S1130560679575956795759567957595679575956F
S11305706795617085E00E945100BE01062E672FC9
S1130580000C661F770B000C661F771F617086E0F6
S11305900E945100BE01660F672F661F770B6170C2
S11305A087E00E9451008CE161E00E94510083EFDA
S11305B091E00197F1F700C000008CE160E00E9437
S11305C0510083EF91E00197F1F700C00000DF9143
S11305D0CF910895CF93C82F88E160E00E94510025
S11305E089E160E00E9451008C2F0E947D02CF912E
S11305F00895CF93C82F88E161E00E94510089E1FA
S113060060E00E9451008C2F0E947D02CF910895DA
S113061081E00E94EA0283EF91E00197F1F700C0C4
S1130620000008958DE292E20197F1F700C0000006
S113063088E30E94EA0289EF90E00197F1F700C095
S113064000008CE00E94EA0289EF90E00197F1F744
S113065000C000000E94080386E00E94EA0283EFC3
S113066091E00197F1F700C000008CE160E00E9486
S113067051000895813029F4862F80580E94EA029F
S11306800895823021F4862F80540E94EA0208954E
S11306900F931F93CF938C01FC018081882351F029
S11306A0C0E00E94F902CF5FF801EC0FF11D8081D8
S11306B08823B9F7CF911F910F910895662381F094
S11306C021E030E040E090E0F901E89F9001E99FEB
S11306D0300DF89F300D11244F5F4617A9F702C063
S11306E021E030E0822F932F0895CF92DF92EF9292
S11306F0FF921F93CF93DF936C01009721F480E363
S11307000E94F90225C0C0E02AE030E0CF5FB901C1
S11307100E94C605CB010097C9F7CC23C9F0C1508C
S1130720DC2D1D2D8AE06C2F0E945E037C018D2F31
S1130730912FB7010E94C605862F805D0E94F902A1
S1130740C601B7010E94C605D82F192FC15050F712
S113075080E0DF91CF911F91FF90EF90DF90CF90D9
S1130760089583B7806483BF83B7886083BF83B7EA
S11307708E7F83BF83B7826083BF83B78B7F83BF42
S113078083B78F7E83BF83B7806283BF89B78E7F31
S113079089BF89B78D7F89BF88B7816088BF88B7D3
S11307A0826088BF12BE1CBE089582BF08958CBFAC
S11307B0089589B7816089BF089589B78E7F89BFFD
S11307C0089589B7826089BF089589B78D7F89BFED
S11307D008959093810080938000089590937F0002
S11307E080937E0008951F920F920FB60F921124EA
S11307F02F933F934F935F936F937F938F939F9325
S1130800AF93BF93EF93FF93E0918000F091810049
S11308100995FF91EF91BF91AF919F918F917F9136
S11308206F915F914F913F912F910F900FBE0F9059
S11308301F9018951F920F920FB60F9211242F93A9
S11308403F934F935F936F937F938F939F93AF9354
S1130850BF93EF93FF93E0917E00F0917F000995A1
S1130860FF91EF91BF91AF919F918F917F916F9184
S11308705F914F913F912F910F900FBE0F901F905A
S113088018950CD0E6C0DED040F0D5D030F021F47D
S11308905F3F19F0C7C0511110C1CAC0EBD098F323
S11308A09923C9F35523B1F3951B550BBB27AA27ED
S11308B062177307840738F09F5F5F4F220F331F5F
S11308C0441FAA1FA9F333D00E2E3AF0E0E830D02B
S11308D091505040E695001CCAF729D0FE2F27D02E
S11308E0660F771F881FBB1F261737074807AB07FC
S11308F0B0E809F0BB0B802DBF01FF2793585F4F71
S11309002AF09E3F510568F08DC0D7C05F3FECF3DD
S1130910983EDCF3869577956795B795F7959F5F35
S1130920C9F7880F911D9695879597F90895E1E089
S1130930660F771F881FBB1F621773078407BA07E8
S113094020F0621B730B840BBA0BEE1F88F7E09543
S1130950089598D088F09F5790F0B92F9927B751F0
S1130960A0F0D1F0660F771F881F991F1AF0BA956F
S1130970C9F712C0B13081F09FD0B1E008959CC096
S1130980672F782F8827B85F39F0B93FCCF3869565
S113099077956795B395D9F73EF4909580957095C2
S11309A061957F4F8F4F9F4F0895E89409C097FB3F
S11309B03EF490958095709561957F4F8F4F9F4F32
S11309C09923A9F0F92F96E9BB279395F695879576
S11309D077956795B795F111F8CFFAF4BB0F11F439
S11309E060FF1BC06F5F7F4F8F4F9F4F16C08823E0
S11309F011F096E911C0772321F09EE8872F762F16
S1130A0005C0662371F096E8862F70E060E02AF056
S1130A109A95660F771F881FDAF7880F9695879542
S1130A2097F9089597F99F6780E870E060E008956A
S1130A309FEF80EC089500240A94161617061806F2
S1130A400906089500240A941216130614060506CE
S1130A500895092E0394000C11F4882352F0BB0F5F
S1130A6040F4BF2B11F460FF04C06F5F7F4F8F4FC2
S1130A709F4F089557FD9058440F551F59F05F3FFD
S1130A8071F04795880F97FB991F61F09F3F79F0AC
S1130A9087950895121613061406551FF2CF46952E
S1130AA0F1DF08C0161617061806991FF1CF8695B0
S1130AB07105610508940895E894BB276627772794
S1130AC0CB0197F908950BD0C4CFB5DF28F0BADF76
S1130AD018F0952309F0A6CFABCF1124EECFCADFCF
S1130AE0A0F3959FD1F3950F50E0551F629FF0013D
S1130AF0729FBB27F00DB11D639FAA27F00DB11D96
S1130B00AA1F649F6627B00DA11D661F829F22271E
S1130B10B00DA11D621F739FB00DA11D621F839FA5
S1130B20A00D611D221F749F3327A00D611D231F7B
S1130B30849F600D211D822F762F6A2F11249F57C9
S1130B4050408AF0E1F088234AF0EE0FFF1FBB1FEC
S1130B50661F771F881F91505040A9F79E3F51058B
S1130B6070F060CFAACF5F3FECF3983EDCF386953C
S1130B7077956795B795F795E7959F5FC1F7FE2B36
S1130B80880F911D9695879597F90895AA1BBB1B0D
S1130B9051E107C0AA1FBB1FA617B70710F0A61B79
S1130BA0B70B881F991F5A95A9F780959095BC019A
S10B0BB0CD010895F894FFCF74
S1130BB844757479204379636C65203D00467265F9
S1090BC871203D20000134
S9030000FC
