S0170000696E7465726E616C5F656570726F6D2E73726563C9
S11300000C942A000C9447000C9447000C9447006D
S11300100C9447000C9447000C9447000C94470040
S11300200C9447000C9447000C9447000C94470030
S11300300C9447000C9447000C9447000C94470020
S11300400C9447000C9447000C9447000C94470010
S11300500C94470011241FBECFE5D8E0DEBFCDBF0E
S113006010E0A0E6B0E0EEE8F7E002C005900D92E3
S1130070A03AB107D9F710E0A0EAB0E001C01D92A0
S1130080A03AB107E1F70E9435020C94C5030C9421
S11300900000813031F1813038F0823009F43EC003
S11300A0833009F074C057C0413069F42AB381E049
S11300B090E0AC0102C0440F551F6A95E2F7BA0103
S11300C0622B6ABB08952AB381E090E0AC0102C0C0
S11300D0440F551F6A95E2F7BA01609562236ABB23
S11300E00895413069F427B381E090E0AC0102C087
S11300F0440F551F6A95E2F7BA01622B67BB089556
S113010027B381E090E0AC0102C0440F551F6A950B
S1130110E2F7BA016095622367BB0895413069F440
S113012024B381E090E0AC0102C0440F551F6A95EE
S1130130E2F7BA01622B64BB089524B381E090E036
S1130140AC0102C0440F551F6A95E2F7BA016095ED
S1130150622364BB0895413069F421B381E090E0E7
S1130160AC0102C0440F551F6A95E2F7BA01622B35
S113017061BB089521B381E090E0AC0102C0440F5B
S1130180551F6A95E2F7BA016095622361BB089531
S1130190813031F1813038F0823009F43EC083304F
S11301A009F074C057C0442371F42BB381E090E08C
S11301B0AC0102C0440F551F6A95E2F7BA0160957D
S11301C062236BBB08952BB381E090E0AC0102C0C5
S11301D0440F551F6A95E2F7BA01622B6BBB089571
S11301E0442371F428B381E090E0AC0102C0440FD1
S11301F0551F6A95E2F7BA016095622368BB0895BA
S113020028B381E090E0AC0102C0440F551F6A9509
S1130210E2F7BA01622B68BB0895442371F425B355
S113022081E090E0AC0102C0440F551F6A95E2F7EB
S1130230BA016095622365BB089525B381E090E01F
S1130240AC0102C0440F551F6A95E2F7BA01622B54
S113025065BB0895442371F422B381E090E0AC01BE
S113026002C0440F551F6A95E2F7BA0160956223F4
S113027062BB089522B381E090E0AC0102C0440F58
S1130280551F6A95E2F7BA01622B62BB089508957F
S1130290682370E0CB0102C0959587954A95E2F7F3
S11302A008958130A1F0813028F08230E9F0833064
S11302B0A1F527C02BB381E090E0AC0102C0440F4C
S11302C0551F6A95E2F7BA0162276BBB089528B3FC
S11302D081E090E0AC0102C0440F551F6A95E2F73B
S11302E0BA01622768BB089525B381E090E0AC01B0
S11302F002C0440F551F6A95E2F7BA01622765BB35
S1130300089522B381E090E0AC0102C0440F551F70
S11303106A95E2F7BA01622762BB0895813089F0D9
S1130320813028F08230B9F0833049F51EC029B3FA
S113033030E0C90102C0959587956A95E2F781700E
S1130340089526B330E0C90102C0959587956A9552
S1130350E2F78170089523B330E0C90102C0959596
S113036087956A95E2F78170089520B330E0C9015A
S113037002C0959587956A95E2F78170089580E0AB
S113038008958130F9F0813030F0823091F183307A
S113039009F05CC045C08AB390E0062E02C0959572
S11303A087950A94E2F780FD51C02BB381E090E079
S11303B0AC0102C0440F551F6A95E2F7BA01622BE3
S11303C06BBB089587B390E0062E02C09595879580
S11303D00A94E2F780FD3AC028B381E090E0AC01D2
S11303E002C0440F551F6A95E2F7BA01622B68BB3D
S11303F0089584B390E0062E02C0959587950A94DB
S1130400E2F780FD23C025B381E090E0AC0102C097
S1130410440F551F6A95E2F7BA01622B65BB089534
S113042081B390E0062E02C0959587950A94E2F771
S113043080FD0CC022B381E090E0AC0102C0440F07
S1130440551F6A95E2F7BA01622B62BB08958EBB11
S11304509FBB6DBBE29AE19A8CB381FDFDCF0895F9
S11304608EBB9FBBE09A8DB308950E94790381E00F
S113047090E06BE60E94270282E090E061E60E9431
S1130480270283E090E062E70E94270284E090E084
S113049069E60E94270285E090E06DE60E9427024B
S11304A081E090E00E94300290E00E943A0382E0F2
S11304B090E00E94300290E00E943A0383E090E0D2
S11304C00E94300290E00E943A0384E090E00E948F
S11304D0300290E00E943A0385E090E00E943002EE
S11304E090E00E943A0380E090E060E070E00E94B7
S11304F02B03D6CF80E062E041E00E94C80082E096
S11305008A95F1F700C080E062E040E00E94C800F4
S11305108FE99FE00197F1F700C000000895CF93A1
S1130520C82F80E063E040E00E94C8004C2F429551
S11305304F70417081E060E00E94C8004C2F4295EA
S113054046954770417081E061E00E94C8004C2FDD
S11305504295469546954370417081E062E00E9461
S1130560C8004C2F441F4427441F81E064E00E94CC
S1130570C8000E947A024C2F417081E060E00E9422
S1130580C8004C2F4695417081E061E00E94C8008C
S11305904C2F46954695417081E062E00E94C80068
S11305A0C695C695C6954C2F417081E064E00E94C3
S11305B0C8000E947A02CF910895CF93C82F80E09B
S11305C063E041E00E94C8004C2F42954F70417097
S11305D081E060E00E94C8004C2F42954695477028
S11305E0417081E061E00E94C8004C2F429546951D
S11305F046954370417081E062E00E94C8004C2F30
S1130600441F4427441F81E064E00E94C8000E9404
S11306107A024C2F417081E060E00E94C8004C2FA8
S11306204695417081E061E00E94C8004C2F4695D8
S11306304695417081E062E00E94C800C695C69567
S1130640C6954C2F417081E064E00E94C8000E946E
S11306507A02CF910895882319F0813051F405C0AE
S1130660862F80580E948F020895862F80540E94FE
S11306708F0208950E94DD020895CF93DF93EC0169
S11306808881882331F021960E943A038991882336
S1130690D9F7DF91CF910895DF92EF92FF920F93F4
S11306A01F93CF93DF9300E4EE24FF24DD246894AA
S11306B0D3F8802F0E948F02E701CC0FDD1FCC0FEF
S11306C0DD1FCC0FDD1FC05ADF4F1D2D89910E9405
S11306D03A031150D9F70894E11CF11C085F003863
S11306E041F7DF91CF911F910F91FF90EF90DF9031
S11306F0089580E063E041E00E94490080E062E008
S113070041E00E94490081E060E041E00E9449002C
S113071081E061E041E00E94490081E062E041E063
S11307200E94490081E064E041E00E9449008FE2B8
S113073095E70197F1F700C0000083E00E948F0263
S11307408FE097E20197F1F700C0000083E00E9478
S11307508F0287EC90E00197F1F700C0000083E07E
S11307600E948F0282E00E948F0288E20E948F0220
S11307708CE00E948F020E944C0381E00E948F0251
S111078080E060E00E942B030895F894FFCF00
S113078E0A1F1F1F1F0E0400041F11111111111F28
S113079E041F111111111F1F041F1111111F1F1FEF
S11307AE041F11111F1F1F1F041F111F1F1F1F1FA7
S11307BE041F1F1F1F1F1F1F000001010505151514
S9030000FC
