S01000005370695F706C61792E73726563D3
S11300000C942A000C9447000C9447000C9447006D
S11300100C9447000C9447000C9447000C94470040
S11300200C9447000C9447000C9447000C94470030
S11300300C940B030C9447000C9447000C94470059
S11300400C9447000C9447000C9447000C94470010
S11300500C94470011241FBECFE5D8E0DEBFCDBF0E
S113006010E0A0E6B0E0EEE8F6E002C005900D92E4
S1130070A036B107D9F710E0A0E6B0E001C01D92A8
S1130080A336B107E1F70E9421030C9445030C94B5
S1130090000082E060E040E00E947E0083E066E0D1
S11300A040E00E947E0083E065E040E00E947E0024
S11300B00895813071F0813018F08230E1F412C07B
S11300C082E060E00E94C30191E08823A9F090E0FF
S11300D013C083E066E00E94C30191E0882361F0CD
S11300E090E00AC083E065E00E94C30191E08823A8
S11300F019F090E001C090E0892F0895813031F12A
S1130100813038F0823009F43EC0833009F074C085
S113011057C0413069F42AB381E090E0AC0102C0D9
S1130120440F551F6A95E2F7BA01622B6ABB089522
S11301302AB381E090E0AC0102C0440F551F6A95D8
S1130140E2F7BA01609562236ABB0895413069F40D
S113015027B381E090E0AC0102C0440F551F6A95BB
S1130160E2F7BA01622B67BB089527B381E090E000
S1130170AC0102C0440F551F6A95E2F7BA016095BD
S1130180622367BB0895413069F424B381E090E0B1
S1130190AC0102C0440F551F6A95E2F7BA01622B05
S11301A064BB089524B381E090E0AC0102C0440F25
S11301B0551F6A95E2F7BA016095622364BB0895FE
S11301C0413069F421B381E090E0AC0102C0440FF6
S11301D0551F6A95E2F7BA01622B61BB089521B3FA
S11301E081E090E0AC0102C0440F551F6A95E2F72C
S11301F0BA016095622361BB0895813031F1813089
S113020038F0823009F43EC0833009F074C057C01E
S1130210442371F42BB381E090E0AC0102C0440F9D
S1130220551F6A95E2F7BA01609562236BBB089586
S11302302BB381E090E0AC0102C0440F551F6A95D6
S1130240E2F7BA01622B6BBB0895442371F428B31F
S113025081E090E0AC0102C0440F551F6A95E2F7BB
S1130260BA016095622368BB089528B381E090E0E9
S1130270AC0102C0440F551F6A95E2F7BA01622B24
S113028068BB0895442371F425B381E090E0AC0188
S113029002C0440F551F6A95E2F7BA0160956223C4
S11302A065BB089525B381E090E0AC0102C0440F22
S11302B0551F6A95E2F7BA01622B65BB0895442382
S11302C071F422B381E090E0AC0102C0440F551FE9
S11302D06A95E2F7BA016095622362BB089522B37E
S11302E081E090E0AC0102C0440F551F6A95E2F72B
S11302F0BA01622B62BB08950895682370E0CB01B4
S113030002C0959587954A95E2F708958130A1F04A
S1130310813028F08230E9F08330A1F527C02BB377
S113032081E090E0AC0102C0440F551F6A95E2F7EA
S1130330BA0162276BBB089528B381E090E0AC0159
S113034002C0440F551F6A95E2F7BA01622768BBE1
S1130350089525B381E090E0AC0102C0440F551F1D
S11303606A95E2F7BA01622765BB089522B381E07A
S113037090E0AC0102C0440F551F6A95E2F7BA0140
S1130380622762BB0895813089F0813028F0823081
S1130390B9F0833049F51EC029B330E0C90102C069
S11303A0959587956A95E2F78170089526B330E0B4
S11303B0C90102C0959587956A95E2F78170089501
S11303C023B330E0C90102C0959587956A95E2F799
S11303D08170089520B330E0C90102C095958795D6
S11303E06A95E2F78170089580E008958130F9F00C
S11303F0813030F0823091F1833009F05CC045C027
S11304008AB390E0062E02C0959587950A94E2F788
S113041080FD51C02BB381E090E0AC0102C0440FD9
S1130420551F6A95E2F7BA01622B6BBB089587B337
S113043090E0062E02C0959587950A94E2F780FD18
S11304403AC028B381E090E0AC0102C0440F551FCC
S11304506A95E2F7BA01622B68BB089584B390E011
S1130460062E02C0959587950A94E2F780FD23C075
S113047025B381E090E0AC0102C0440F551F6A959A
S1130480E2F7BA01622B65BB089581B390E0062EB2
S113049002C0959587950A94E2F780FD0CC022B3BB
S11304A081E090E0AC0102C0440F551F6A95E2F769
S11304B0BA01622B62BB08958FB780688FBF08951D
S11304C08FB78F778FBF089581E067E041E00E9486
S11304D07E0080E064E041E00E947E0080E065E010
S11304E041E00E947E0080E066E041E00E947E00E0
S11304F00895823081F0833018F48130E9F405C026
S1130500833079F08430C1F412C081E067E041E0C7
S11305100E94FD00089580E064E041E00E94FD0037
S1130520089580E065E041E00E94FD00089580E0C8
S113053066E041E00E94FD000895823081F083303E
S113054018F48130E9F405C0833079F08430C1F4C3
S113055012C081E067E040E00E94FD00089580E061
S113056064E040E00E94FD00089580E065E040E022
S11305700E94FD00089580E066E040E00E94FD00D6
S11305800895823079F0833018F48130C9F405C0BD
S1130590833069F08430A1F40FC081E067E00E94E9
S11305A08601089580E064E00E948601089580E059
S11305B065E00E948601089580E066E00E9486015D
S11305C008951DB8BC9ABD9ABF9ABE98C49A8DB1BD
S11305D081658DB98EB18EB96F9A08951DB8BC9896
S11305E0BD98BF98BE9A80E48DB96F9A0895C49857
S11305F08FB9779BFECF8FB10895779BFECF8FB1D4
S113060008958FB9779BFECF8EB1089590936200C1
S11306108093610008951F920F920FB60F921124D8
S11306208F93EF93FF93E0916100F09162008FB19B
S11306308083FF91EF918F910F900FBE0F901F90C9
S113064018950E9464020E94EE020E94FD02813607
S113065069F482E00E9479028FEF93ECA9E0815063
S11306609040A040E1F700C00000EFCF823669F768
S113067082E00E949D028FEF93ECA9E081509040AC
S1110680A040E1F700C00000E0CFF894FFCFE7
S9030000FC
