S0110000756172745F706C61792E7372656342
S11300000C942A000C9447000C9447000C9447006D
S11300100C9447000C9447000C9447000C94470040
S11300200C9447000C9447000C9447000C94470030
S11300300C9447000C942D030C9447000C94EE028E
S11300400C9447000C9447000C9447000C94470010
S11300500C94470011241FBECFE5D8E0DEBFCDBF0E
S113006010E0A0E6B0E0EEE1F7E002C005900D92EA
S1130070A436B107D9F718E0A4E6B0E001C01D9298
S1130080A933B107E1F70E9464030C948D030C9427
S11300900000813031F1813038F0823009F43EC003
S11300A0833009F074C057C0413069F42AB381E049
S11300B090E0AC0102C0440F551F6A95E2F7BA0103
S11300C0622B6ABB08952AB381E090E0AC0102C0C0
S11300D0440F551F6A95E2F7BA01609562236ABB23
S11300E00895413069F427B381E090E0AC0102C087
S11300F0440F551F6A95E2F7BA01622B67BB089556
S113010027B381E090E0AC0102C0440F551F6A950B
S1130110E2F7BA016095622367BB0895413069F440
S113012024B381E090E0AC0102C0440F551F6A95EE
S1130130E2F7BA01622B64BB089524B381E090E036
S1130140AC0102C0440F551F6A95E2F7BA016095ED
S1130150622364BB0895413069F421B381E090E0E7
S1130160AC0102C0440F551F6A95E2F7BA01622B35
S113017061BB089521B381E090E0AC0102C0440F5B
S1130180551F6A95E2F7BA016095622361BB089531
S1130190813031F1813038F0823009F43EC083304F
S11301A009F074C057C0442371F42BB381E090E08C
S11301B0AC0102C0440F551F6A95E2F7BA0160957D
S11301C062236BBB08952BB381E090E0AC0102C0C5
S11301D0440F551F6A95E2F7BA01622B6BBB089571
S11301E0442371F428B381E090E0AC0102C0440FD1
S11301F0551F6A95E2F7BA016095622368BB0895BA
S113020028B381E090E0AC0102C0440F551F6A9509
S1130210E2F7BA01622B68BB0895442371F425B355
S113022081E090E0AC0102C0440F551F6A95E2F7EB
S1130230BA016095622365BB089525B381E090E01F
S1130240AC0102C0440F551F6A95E2F7BA01622B54
S113025065BB0895442371F422B381E090E0AC01BE
S113026002C0440F551F6A95E2F7BA0160956223F4
S113027062BB089522B381E090E0AC0102C0440F58
S1130280551F6A95E2F7BA01622B62BB089508957F
S1130290682370E0CB0102C0959587954A95E2F7F3
S11302A008958130A1F0813028F08230E9F0833064
S11302B0A1F527C02BB381E090E0AC0102C0440F4C
S11302C0551F6A95E2F7BA0162276BBB089528B3FC
S11302D081E090E0AC0102C0440F551F6A95E2F73B
S11302E0BA01622768BB089525B381E090E0AC01B0
S11302F002C0440F551F6A95E2F7BA01622765BB35
S1130300089522B381E090E0AC0102C0440F551F70
S11303106A95E2F7BA01622762BB0895813089F0D9
S1130320813028F08230B9F0833049F51EC029B3FA
S113033030E0C90102C0959587956A95E2F781700E
S1130340089526B330E0C90102C0959587956A9552
S1130350E2F78170089523B330E0C90102C0959596
S113036087956A95E2F78170089520B330E0C9015A
S113037002C0959587956A95E2F78170089580E0AB
S113038008958130F9F0813030F0823091F183307A
S113039009F05CC045C08AB390E0062E02C0959572
S11303A087950A94E2F780FD51C02BB381E090E079
S11303B0AC0102C0440F551F6A95E2F7BA01622BE3
S11303C06BBB089587B390E0062E02C09595879580
S11303D00A94E2F780FD3AC028B381E090E0AC01D2
S11303E002C0440F551F6A95E2F7BA01622B68BB3D
S11303F0089584B390E0062E02C0959587950A94DB
S1130400E2F780FD23C025B381E090E0AC0102C097
S1130410440F551F6A95E2F7BA01622B65BB089534
S113042081B390E0062E02C0959587950A94E2F771
S113043080FD0CC022B381E090E0AC0102C0440F07
S1130440551F6A95E2F7BA01622B62BB08958FB714
S113045080688FBF08958FB78F778FBF089581E02D
S113046067E041E00E94490080E064E041E00E94CE
S1130470490080E065E041E00E94490080E066E0D8
S113048041E00E9449000895823081F0833018F4DD
S11304908130E9F405C0833079F08430C1F412C0AE
S11304A081E067E041E00E94C800089580E064E0D4
S11304B041E00E94C800089580E065E041E00E94A8
S11304C0C800089580E066E041E00E94C8000895F5
S11304D0823081F0833018F48130E9F405C0833030
S11304E079F08430C1F412C081E067E040E00E94FA
S11304F0C800089580E064E040E00E94C8000895C8
S113050080E065E040E00E94C800089580E066E075
S113051040E00E94C8000895823079F0833018F4D6
S11305208130C9F405C0833069F08430A1F40FC070
S113053081E067E00E945101089580E064E00E9438
S11305405101089580E065E00E945101089580E022
S113055066E00E945101089589B990BD549A539A56
S113056080B5866A80BD579A569A08959BB195FFC7
S1130570FDCF8CB908955F9B02C08CB1089580E0D3
S11305800895CF93DF93EC018881882331F021967D
S11305900E94B60289918823D9F7DF91CF910895FB
S11305A0DC0110926800109267008C91882361F03E
S11305B0E1E5F4E0119620E030E081932F5F3F4FB6
S11305C08D918823D1F702C020E030E02F5A3B4FB1
S11305D0F9011082809151048CB908951F920F92F1
S11305E00FB60F9211242F933F938F939F93EF9302
S11305F0FF93809167009091680001969093680042
S113060080936700FC01EF5AFB4F2081222321F4E1
S113061033E0883E930710F02CB904C010926800B0
S113062010926700FF91EF919F918F913F912F91CD
S11306300F900FBE0F901F9018958091640088232F
S113064021F01092640081E0089580E0089529E685
S113065030E0FC013183208308951F920F920FB67E
S11306600F9211242F938F939F93EF93FF93809175
S11306706500909166002CB1FC01E759FF4F20837F
S11306802D3021F023E0883E920758F087599F4F80
S1130690FC01108281E08093640010926600109245
S11306A065008091650090916600019690936600C4
S11306B080936500FF91EF919F918F912F910F90FF
S11306C00FBE0F901F901895CF93DF9300D0CDB736
S11306D0DEB787E690E00E94AC020E942F020E94DF
S11306E0270200E610E00E941D03882321F0CE01BA
S11306F001960E942703E981FA818181813619F4E8
S1130700C8010E94D0028FEF93EDA0E38150904086
S1110710A040E1F700C00000E6CFF894FFCF50
S107071E68690D00F5
S9030000FC
